:020000040800F2
:1000000040070020890100084B160008251200084F
:1000100049160008F3020008B516000800000000A9
:100020000000000000000000000000004F16000863
:10003000F5020008000000004D16000851160008E7
:10004000A3010008A3010008A3010008A301000800
:10005000A3010008A3010008A3010008A3010008F0
:10006000A3010008A3010008A3010008A3010008E0
:10007000A3010008A3010008A3010008A3010008D0
:10008000A3010008A3010008A3010008A3010008C0
:10009000A3010008A3010008A3010008A3010008B0
:1000A000A3010008A3010008A3010008A3010008A0
:1000B000A3010008A3010008A3010008A301000890
:1000C000A3010008A3010008A3010008A301000880
:1000D000A3010008A3010008A3010008A301000870
:1000E000A3010008A3010008A301000800F002F822
:1000F00000F03AF80AA090E8000C82448344AAF188
:100100000107DA4501D100F02FF8AFF2090EBAE885
:100110000F0013F0010F18BFFB1A43F0010318473B
:10012000D81B0000F81B0000103A24BF78C878C123
:10013000FAD8520724BF30C830C144BF04680C60ED
:10014000704700000023002400250026103A28BF35
:1001500078C1FBD8520728BF30C148BF0B60704739
:100160001FB51FBD10B510BD00F08AF81146FFF78E
:10017000F7FF01F0ABFB00F0A8F803B4FFF7F2FFC4
:1001800003BC00F0AFF80000094880470948004769
:10019000FEE7FEE7FEE7FEE7FEE7FEE7FEE7FEE737
:1001A000FEE7FEE704480549054A064B7047000094
:1001B000B3160008ED0000084001002040070020B1
:1001C000400300204003002010B5203AC0F00B800F
:1001D000B1E81850203AA0E81850B1E81850A0E84B
:1001E0001850BFF4F5AF5FEA027C24BFB1E81850A5
:1001F000A0E8185044BF18C918C0BDE810405FEA15
:10020000827C24BF51F8043B40F8043B08BF704790
:10021000D20728BF31F8023B48BF11F8012B28BF95
:1002200020F8023B48BF00F8012B70474FF0000256
:1002300000B5134694469646203922BFA0E80C50DC
:10024000A0E80C50B1F12001BFF4F7AF090728BFB7
:10025000A0E80C5048BF0CC05DF804EB890028BF33
:1002600040F8042B08BF704748BF20F8022B11F05C
:10027000804F18BF00F8012B7047704770477047D8
:10028000754600F02BF8AE4605006946534620F04F
:100290000700854618B020B5FFF784FFBDE8204071
:1002A0004FF000064FF000074FF000084FF0000B32
:1002B00021F00701AC46ACE8C009ACE8C009ACE8E5
:1002C000C009ACE8C0098D46704710B50446AFF3CD
:1002D00000802046BDE81040FFF74FBF0048704740
:1002E000E000002001491820ABBEFEE72600020016
:1002F0007047FEE77047000070B5044600F004F94F
:100300000546601C02D004480078044400F0FCF864
:10031000401BA042FAD370BD080000202DE9F84F21
:10032000DFF8B891002409F1040A0AF1040B23460E
:100330000F270BF1040EC9E00125A5402A40AA426F
:100340007DD1674ED1F804C0ACEB0608B44532D07D
:1003500014DCBCF1030F3AD009DCBCF1000F2AD049
:10036000BCF1010F1CD0BCF1020F31D11DE0BCF17A
:10037000110F17D0BCF1120F2AD119E0B8F5881F60
:1003800019D006DCB8F5803F15D0B8F5801F1FD115
:1003900011E0B8F5001F0ED0B8F5041F18D10AE01F
:1003A000CB6815E0CB681B1D12E0CB6808330FE06B
:1003B000CB680C330CE08B682BB1012B4FF008039A
:1003C00003D0456104E0042302E0056100E000235E
:1003D000FF2A01D8064601E000F104064FEA840531
:1003E00001D9A5F12005D6F8008007FA05FC28EA16
:1003F0000C0803FA05F548EA0508C6F800804D68C0
:10040000ED0062D5374DAE6946F00106AE61AD69CB
:1004100024F0030605F001050095334D06EB050CAD
:10042000DCF80850A607360F07FA06F825EA080593
:10043000DFF8B880404503D14FF0000817E044E0F2
:10044000DFF8AC80404502D14FF001080FE0DFF843
:10045000A480404502D14FF0020808E0DFF8988000
:10046000404502D14FF0030801E04FF0040808FABC
:1004700006F848EA0508CCF808804D68D9F800600D
:10048000ED034D4601D5164300E096432E604D68BE
:10049000DAF80060AD03554601D5164300E09643F7
:1004A0002E604D68DBF80060ED025D4601D5164315
:1004B00000E096432E604D68DEF80060AD027546A0
:1004C00001D5164300E096432E60641C0D682A4651
:1004D000E5407FF431AFBDE8F88F00000004014033
:1004E000000011100010024000000140000801400F
:1004F000000C014000100140001401400AB10161EC
:1005000070470904FBE7000001488068704700005D
:100510000800002070B5040025D094F83D000025A7
:1005200020B984F83C50204600F026FB242084F8B3
:100530003D002068016821F0010101602068016828
:1005400041F4004101602068016821F4004101602C
:1005500000F07EFC4D4A6168914201D84C4900E0B0
:100560004C49884201D2012070BD4B492368B0FB41
:10057000F1F15E6826F03F060E435E6063689342C9
:1005800006D94FF4967359434FF47A73B1FBF3F1E4
:100590002368491C1E6A26F03F06314319626168D0
:1005A000914210D84900401EB0FBF1F2521CC2F338
:1005B0000B02042A01D2042022E0B0FBF1F0401C1F
:1005C000C0F30B001CE0A268F2B301EBC10303EB24
:1005D0000116431EB3FBF6F35B1C43F480431B057B
:1005E00049D092B301EBC10202EB0111401EB0FBF6
:1005F000F1F0401CC0F30B0040F4804040F4004098
:100600002168CA694CF6FF739A431043C861D4E964
:10061000071001432068026822F0C0021143016004
:10062000D4E9030101432068826848F2FF339A430A
:1006300011438160D4E9050108432168CA6822F0AA
:10064000FF021043C86001E00EE016E02068016878
:1006500041F0010101602564202084F83D002563FC
:1006600084F83E50002070BD01EB4106431EB3FBF1
:10067000F6F35B1CB3E70120C2E701EB4101401E2A
:10068000B0FBF1F0401CC0F30B00B7E7A0860100FF
:1006900080841E0000093D0040420F002DE9FF4FFD
:1006A00081B089460446FFF72FFF054694F83D00C8
:1006B0004FF0010820287DD11923012250492046FE
:1006C000009500F0B1FE002874D194F83C00012898
:1006D00070D0012084F83C0020680168C90703D16C
:1006E000016841F0010101602068016821F40061A6
:1006F0000160242084F83D00002626644148E06221
:100700004FF0011B20272068016841F480710160CF
:100710000095002259462046049B00F085FE50B10A
:1007200020680068C00502D54FF4007020640320E3
:1007300005B0BDE8F08F216809F0FE000861FFF701
:10074000E3FE2168054648694969C0F34000C1F3EA
:1007500080214FF0A00A0FE0FFF7D6FE411B04985E
:10076000814200D808B984F83DA0216848694969E8
:10077000C0F34000C1F3802194F83D20A02A02D0AC
:1007800008B90029E8D084F83D7020684169C94360
:10079000890716D4016841F400710160206841693D
:1007A00080691923012216492046009500F03CFE7D
:1007B000B8B900E021E084F83D7084F83C60002086
:1007C000B6E7016841F40071016021686FF4806050
:1007D0004861192301220A492046009500F024FEB1
:1007E00008B10120A4E7039808F1010880458AD3E5
:1007F00084F83D7084F83C60F3E7022098E700003D
:10080000020010000000FFFF2DE9F84F0025DDF881
:100810002890984617468A4604460095FFF774FECE
:10082000064694F83D0020287AD1192301228349F5
:100830002046009600F0F8FD0028F5D194F83C0021
:1008400001286DD0012084F83C0020680168C907A8
:1008500003D1016841F0010101602068016821F4C1
:1008600000610160222084F83D00102084F83E00E1
:1008700025646762A4F82A80608D20857048E06254
:1008800033464A465146204600F0E4FC00287DD11C
:10089000208DDFF8B081202768B1012814D002280C
:1008A000206801681ED041F48061016020684169C0
:1008B00080690090B5E02068416981690091016814
:1008C00041F400710160ACE02068016821F48061AE
:1008D000016072B62068416981690091016841F444
:1008E00000710AE041F40061016072B6206841695C
:1008F00081690091016821F48061016062B690E035
:10090000032868D801280CD002284B464FF000027B
:100910004146204600960FD000F086FDB0BB10E0A7
:100920008AE032464946204600F0FDFD70BB206853
:100930000069616A08706BE000F076FD30BB72B64A
:1009400034E02068016821F48061016072B620689B
:100950000069616A0870606A401C6062208D401EF8
:100960002085608D401E6085374846F2A8110068DA
:10097000B0FBF1F0C0EBC00000EB80000090401E27
:10098000009008D020684069C04300E029E040079B
:100990000CD50098F3E744F8305F6773A5732069BE
:1009A00040F02000206162B625731AE020680168DB
:1009B00041F40071016020680069616A0870606A32
:1009C000401C6062218D491E2185618D491E618513
:1009D00062B621681AE032464946204600F0A3FD7F
:1009E00010B10120BDE8F88F20680069616A0870C5
:1009F000606A401C6062218D491E2185618D491EFF
:100A0000618521684A69D24352070AD40969017095
:100A1000606A401C6062208D401E2085608D401EF3
:100A20006085208D00287FF46BAF84F83D7084F8DA
:100A30003E5084F83C50D5E70220D3E70200100076
:100A40000000FFFF04000100140000202DE9F84F12
:100A50001F4690468A460446DDF82890FFF754FD6D
:100A6000054694F83D0020287FD1192301224049F2
:100A70002046009500F0D8FC002876D194F83C0080
:100A8000012872D0012084F83C0020680168C90761
:100A900003D1016841F0010101602068016821F47F
:100AA00000610160212084F83D00102084F83E00A0
:100AB00000262664C4F824806785608D20852D4833
:100AC000E0622B464A465146204600F039FC90B978
:100AD000206841698069009036E02A4649462046F0
:100AE00000F054FD50B1206C042804D12068016846
:100AF00041F4007101600120BDE8F88F606A21684F
:100B000000780861606A401C6062618D491E6185E1
:100B1000218D491E89B2218522685369DB435B0719
:100B20000BD451B100781061606A401C6062608D26
:100B3000401E6085208D401E20852A46494620465D
:100B400000F04CFC0028CED1208D0028C5D154F8EF
:100B50003D0B016841F400710160202004F81E097A
:100B6000E67766770020C7E7FFE70220C4E70000CA
:100B7000020010000000FFFF30B585B00021009199
:100B80000191029103911E4D03681E4C1221032214
:100B90001D48AB4216D1A36943F00803A361A369C2
:100BA000039203F008030493C023CDE900316946A2
:100BB000FFF7B4FBE06940F40010E061E06900F485
:100BC000001019E0114DAB4217D1A36943F008039F
:100BD000A361A369039203F0080304934FF44063F5
:100BE000CDE900316946FFF799FBE06940F48000E8
:100BF000E061E06900F48000049005B030BD0000C1
:100C00000054004000100240000C01400058004019
:100C10000248816802781144816070470800002012
:100C2000074810B5016841F010010160032000F091
:100C300067F80F2000F006F800F024F8002010BD3F
:100C40000020024070B50D4D04464FF47A712878AB
:100C5000B1FBF0F00A490968B1FBF0F000F0CEFA00
:100C600048B9102C07D200222146501E00F028F867
:100C700000206C6070BD012070BD000008000020E5
:100C8000140000200C4808B5816941F00101816120
:100C9000816901F001010091C16941F08051C16198
:100CA000C06900F0805000900448416821F0E06184
:100CB00041F00071416008BD001002400000014099
:100CC000F0B40E4B1B680C46C3F30223C3F10705B7
:100CD000042D00D90425191D072901D2002300E0A5
:100CE000DB1E012606FA05F1491E214099409E406F
:100CF000761E16403143F0BC00F0DDBC0CED00E088
:100D0000064900F0070208684FF6FF03184040EA62
:100D10000220034A10430860704700000CED00E019
:100D20000000FA052DE9F0470F46050061D0434E5B
:100D3000306800F00700B84209D2306820F00700A0
:100D400038433060306800F00700B84251D128685D
:100D50003B4C810712D5400703D5606840F4E06042
:100D600060602878000703D5606840F460506060D8
:100D70006068A96820F0F000084360602878C00728
:100D800028D06868012810D02168022810D089076F
:100D900000292EDA616821F0030101436160FFF749
:100DA000B3FB804641F288390DE021688903EFE703
:100DB0008901EDE7FFF7A8FBA0EB0801494502D93F
:100DC0000320BDE8F0876068696800F00C00B0EBB4
:100DD000810FEFD1306800F00700B8420BD93068BE
:100DE00020F0070038433060306800F00700B84258
:100DF00001D00120E5E72878400705D56068E9685B
:100E000020F4E060084360602878000706D5606839
:100E1000296920F4605040EAC100606000F028F8C1
:100E20006168084AC1F30311515CC8400649086073
:100E300006480068FFF706FF0020C2E700200240D6
:100E400000100240DE1C0008140000200C000020EE
:100E50000448054900684968044AC1F30221515C0D
:100E6000C84070471400002000100240EE1C00082B
:100E700012A185B00FC98DE80F0014A0144A0068B4
:100E800004905168134801F00C03042B10D0082B78
:100E90000ED1C1F38343C9031DF803000AD551687D
:100EA00004AAC1F34041515C0A4A5043B0FBF1F03F
:100EB00005B0704708494843FAE7000002030405FB
:100EC000060708090A0B0C0D0E0F10100102000096
:100ED0000010024000127A0000093D002DE9F84F91
:100EE000040070D02078C04DC00749D06868C0F3B6
:100EF0008100012807D06868C0F38100022809D169
:100F00006868C00306D52868800339D56068002862
:100F1000E7D035E06068B0F5803F0BD010B1B0F598
:100F2000A02F11D0286820F480302860286820F491
:100F3000802002E0286840F480302860606890B12A
:100F4000FFF7E2FA06460AE0286840F480202860AD
:100F5000F0E700BFFFF7D8FA801B642873D8286831
:100F60008003F7D50CE0FFF7CFFA064605E000BF97
:100F7000FFF7CAFA801B6428F0D828688003F7D4EA
:100F800020789A4E80074FF001094FF0000839D5BC
:100F9000686810F00C0F07D06868C0F38100022861
:100FA00009D16868C00306D42868800714D5206971
:100FB000012808D110E02069B0B1C6F80090FFF711
:100FC000A3FA074605E00AE1FFF79EFAC01B0228D4
:100FD000C4D828688007F7D52868616920F0F80030
:100FE00040EAC10028600DE0C6F80080FFF78CFAE7
:100FF000074604E0FFF788FAC01B022823D82868B8
:101000008007F7D4207800072CD57948A169D9B199
:10101000C0F80090FFF778FA074604E0FFF774FA8B
:10102000C01B02280FD8686A8007F7D571484FF4B3
:10103000FA510068B0FBF1F0009000BF0098411E2B
:101040000091FAD20EE080E0C0F80080FFF75CFA71
:10105000074604E0FFF758FAC01B022875D8686AF3
:101060008007F7D42078400760D5E8690027C000E2
:1010700008D4E86940F08050E861E869012700F091
:10108000805000905C480168C90513D4016883460C
:1010900041F480710160FFF737FA824606E000BF35
:1010A000FFF732FAA0EB0A0064284ED8DBF8000004
:1010B000C005F5D5E06801280AD008B1052813D08D
:1010C000286A20F001002862286A20F0040002E06B
:1010D000286A40F001002862E06841F2883B98B13C
:1010E000FFF712FA82460BE0286A40F004002862FB
:1010F000EEE700BFFFF708FAA0EB0A0159455AD8FE
:10110000286A8007F6D50CE0FFF7FEF9824605E075
:10111000FFF7FAF9A0EB0A0159454CD8286A800775
:10112000F6D41FB1E86920F08050E861E06988B327
:101130006968C1F38101022944D00228C6F86080A1
:1011400004D0FFF7E1F9044638E034E0FFF7DCF9BA
:10115000074604E0FFF7D8F9C01B02282BD82868FF
:101160008001F7D4206AB0F5803F05D16868A16896
:1011700020F4003008436860D4E908010843696836
:1011800021F4741108436860C6F86090FFF7BCF959
:10119000044606E025E000BFFFF7B6F9001B022871
:1011A00009D828688001F7D51BE000BFFFF7ACF92C
:1011B000001B022802D90320BDE8F88F28688001AF
:1011C000F4D40EE00128F7D06868226A00F4803178
:1011D000914204D1616A00F47010884201D001206C
:1011E000EAE70020E8E70000001002400000424269
:1011F00080044242140000200070004010B5401EE0
:10120000B0F1807F01D3012010BD4FF0E024606178
:101210000F21601700F04FFA0020A0610720206125
:10122000002010BDFEE701684A69D24352050FD481
:101230006FF480624A61002140F8301F202242731F
:101240008173026942F00402026101730120704758
:10125000002070472DE9F84F0446C06A1E469346A9
:101260000D4621680A6842F480620A60082807D0A7
:10127000012805D010F5803F02D0206B112804D141
:101280002068016841F4807101604FF001195B46EC
:10129000002249462046009600F0C6F84FF4007838
:1012A00040B120680068C00501D5C4F84080032023
:1012B000BDE8F88F2069DFF884A0B0F5804F0FD02B
:1012C0000620216800EAD51747F0F0000861334690
:1012D0005A460AF10601204600F0DAF858BB03E04E
:1012E000E8B240F001001CE02168E8B20861334632
:1012F0005A465146204600F0CBF8E0B920684169D3
:1013000081690091016841F4807101605B460022AF
:1013100049462046009600F087F80028C1D147F0E2
:10132000F1002168086133465A465146204600F0D4
:10133000AFF80028BCD00120BAE70000020001008D
:10134000F8B50446C06A1E460D461746082807D061
:10135000012805D010F5803F02D0206B122804D15F
:101360002068016841F480710160134600224FF04B
:1013700001112046009600F057F840B1206800683F
:10138000C00502D54FF4007020640320F8BD206929
:10139000B0F5804F0ED00620216800EAD51040F04D
:1013A000F000086133463A460B49204600F070F8D9
:1013B00078B902E005F0FE0000E0E8B221680861BB
:1013C000054933463A46891F204600F061F8002857
:1013D000DCD00120F8BD00000800010070B5164601
:1013E0000D4604460DE02046FFF71DFF08B1012021
:1013F00070BD681C05D0FFF787F8801BA84207D88E
:1014000035B120684069C0434007ECD4002070BD6E
:10141000002044F8300F20216173A073216941F04E
:10142000200121612073E2E72DE9F0471E46904636
:101430000D460446C1F30747DDF8209008E0701C14
:1014400006D0FFF761F8A0EB0900B0420FD876B1E3
:101450002068012F18D0806925EA00000004000CE4
:1014600014D000214145EAD00020BDE8F0870020DB
:1014700044F8300F20216173A073216941F02001ED
:10148000216120730120F0E74069E5E70121E9E7E8
:101490002DE9F0479A4691460E46044600254FF046
:1014A0002008C1F3074725E020684069C043400594
:1014B00014D42068016841F40071016021686FF460
:1014C00080604861256384F83D8084F83E50206C3C
:1014D00040F00400206484F83C501FE0B9F1FF3F65
:1014E00008D0FFF711F8A0EB0A0149450CD8B9F173
:1014F000000F09D02068012F13D0806926EA000070
:101500000004000C0BD0CFE744F8305F84F80D8066
:10151000A573206940F02000206125730120BDE8FB
:10152000F0874069EAE72DE9F041002590460E4634
:101530000446202717E04069C043C0060CD454F885
:10154000301B6FF01000486144F810596777A57799
:10155000206A2062257717E0FEF7D6FFA0EB08008F
:10156000B04208D83EB120684169C9434906E2D477
:101570000020BDE8F08144F8305F6773A5732069EF
:1015800040F02000206125730120F2E770B5164677
:101590000D4604460DE02046FFF745FE08B1012048
:1015A00070BD681C05D0FEF7AFFF801BA84207D8AE
:1015B00035B120684069C0430006ECD4002070BDFE
:1015C000002044F8300F20216173A073216941F09D
:1015D000200121612073E2E770B586B0002418482D
:1015E0000094019402940394816941F02001816187
:1015F000816901F020010491816941F00801816154
:10160000816901F008010491816941F0040181615F
:1016100080690C4E00F004004FF4805504900022C5
:1016200029463046FEF76AFF01200095CDE9010406
:101630000220039069463046FEF770FE06B070BD8A
:1016400000100240000C0140FEE7FEE770477047C3
:10165000FFF7DEBA30B58FB028216846FEF7E6FD09
:1016600014210AA8FEF7E2FD01210804CDE90010CB
:101670000024029402250491CDE907504FF4E010B4
:1016800009906846FFF72AFC08B172B6FEE70F2002
:10169000CDE90A054FF48060CDE90C4002210AA88B
:1016A0000E94FFF73FFB002801D072B6FEE70FB0A3
:1016B00030BD7047FEE70907090E002804DB00F182
:1016C000E02080F80014704700F00F0000F1E020E7
:1016D00080F8141D70470000F0B507468BB00E4629
:1016E000002000F0ADF8202E13D0062269463046C7
:1016F00000F072F80024324D0E2E15D0082E10D0B6
:10170000282E0ED02E2E0CD0142E0DD01A2E0BD02B
:101710000CE008226946304600F05EF80024294DAE
:1017200004E00024284D01E0284D0024202102A8D7
:10173000FEF77CFDBDF90000202E22D000F064FAF7
:1017400022462B4600F008F9CDE90401BDF902005C
:1017500000F05AFA22462B4600F0FEF8CDE90601C9
:10176000BDF9040000F050FA22462B4600F0F4F8D0
:10177000CDE90801202202A93846FEF725FD0BB06D
:10178000F0BD00F041FA22462B4600F0E5F8CDE925
:101790000201BDF9020000F037FA22462B4600F0A4
:1017A000DBF8CDE90401BDF9040000F02DFA224672
:1017B0002B4600F0D1F8CDE90601BDF90600D1E7CE
:1017C0000000F03F0000D0400000594000003040D1
:1017D0001A21FFF781BF0000F7B582B0094C6425DC
:1017E000009516460F46012302AA21786068FFF78C
:1017F0002DF9009533463A4621786068FFF704F8E2
:1018000005B0F0BD0000002010B520213F2000F001
:101810004BF8BDE810404FF42F70FEF76DBD10B5CA
:10182000044601463D2000F03FF824B10720BDE802
:101830001040FEF761BD1320F9E70C20FFF7EFBF62
:101840000146072000F030B838B504463220FEF7D4
:1018500053FD144D6C600024642301222146686806
:10186000FEF71CFFD8B1641CE4B2FF2CF4D300BF18
:10187000FFF7CAFF00208DF8000001226946FFF73C
:10188000ABFF0020FFF7DCFF00213F2000F00CF849
:101890000020FFF7C4FF0A20FEF72EFD38BD2C7094
:1018A000E6E70000000000201CB502238DF80400CC
:1018B0000A20009004488DF8051001AA01784068BC
:1018C000FFF7C4F81CBD00000000002088B0FFF73F
:1018D000A7F9FFF7BFFEFFF77FFE1B481949002459
:1018E00001601A49C0E901144FF48045C0E903457D
:1018F00044618461C4610462FEF70CFE08B172B6F3
:10190000FEE711481249543001601249C0E9011440
:10191000C0E9034544618461C4610462FEF7FAFDD5
:1019200008B172B6FEE70848FFF78EFFFFF785FFA4
:101930006846FFF74DFF044820226946A830FEF7AD
:1019400043FCF5E70054004018000020801A060010
:1019500000580040A08601002DE9C04130B4DFF8F6
:10196000A0C23CEA111418BF3CEA131400F0EC804A
:1019700081EA03051CEA111444EAD57418BF1CEA75
:10198000131500F0C780A4EB05044FF0004545EAAD
:10199000C12145EAC32341EA505143EA525304F1BD
:1019A0007F74994204F500344FEAC0204FEAC22206
:1019B00008BF904200F09C804FEA13650FF240167A
:1019C000765D4FEA134506FB05F7C7F1807706FB06
:1019D00007F74FEAD737A7FB03687642C8F5803888
:1019E000A7FB06CE38BFA8F1010807FB08E64FF0B9
:1019F000000EA6FB028CE6FB03CEDCF1000CCEF160
:101A0000004E38BFAEF1010EA6FB0C584FF0000798
:101A10004FF00005E6FB0E87A1FB08C6A0FB07CE32
:101A200016EB0E0645F10005E1FB076515F1E04EEA
:101A30007EBFA4F580345FEA46066D4116F180074B
:101A400045F100054FEA17274FEA066647EA0567A2
:101A5000A6F1DE46B6F1805F4FEA15251FD938465C
:101A600024F0010C05EBC471BCF1FE6F01EB0C110D
:101A700002D8F0BCBDE8008124425CBF01F5801EA5
:101A80009EEAC47F02D4F0BCBDE80081244238D471
:101A9000F0BCA1F1C041BDE8004100F01AB94FEA25
:101AA000D22242EA43524FEAD323A7FB02864FEAEF
:101AB000D02040EA415007FB03661EEA0E0F4FEAB2
:101AC000D12105FB026658BFA6EB0056B6EB0056C7
:101AD0004FEA520E4EEAC37E18EB0E0E56EB530E33
:101AE000BDD518EB02085E417F1C55F10005B6E735
:101AF0004FF480154FF000074FF000064FF000083C
:101B0000ADE7F0BC4FF0000001F1C04101F0004131
:101B1000BDE8008111EA0C1F0CEA131500D00CE09F
:101B200013EA0C1F00F025804FF00000F0BC81EAA2
:101B3000030101F00041BDE80081F0BCBDE80041B7
:101B400081EA030100F0C5B8F0BCBDE8004170B502
:101B500000F071F8097EFC3E00F007B881EA03014D
:101B60004FF0000001F00041704781EA030100F0EE
:101B7000B0B8F0BCBDE800414FF00000214970470B
:101B8000FFFDFBF9F7F5F4F2F0EEEDEBE9E8E6E442
:101B9000E3E1E0DEDDDBDAD8D7D5D4D3D1D0CFCDC9
:101BA000CCCBCAC8C7C6C5C4C2C1C0BFBEBDBCBB02
:101BB000BAB9B8B7B6B5B4B3B2B1B0AFAEADACABFD
:101BC000AAA9A8A8A7A6A5A4A3A3A2A1A09F9F9ED7
:101BD0009D9C9C9B9A999998979796959594939389
:101BE000929191908F8F8E8E8D8C8C8B8B8A898920
:101BF00088888787868585848483838282818180A3
:101C00000000FF070000F87F10F0004248BF40428C
:101C1000B0FA80F310FA03F10AD0C3F11D0303F503
:101C200080634FEA415002EB035202EBD12170472F
:101C30004FF0000070470EF1020E2EF0030E5EF81A
:101C4000046B364205D4012A43EB030515F5001F4A
:101C500012D8012841EB010C1CF5001F0CD80ED145
:101C60004FEAD17C15F5001F0CEB4C0C0CF1020C6B
:101C700008BF4CEBD37C04E04FF0080C01E04FEAC6
:101C8000D37C0CEB4C0526FA05F606F00706B6F1F8
:101C9000040C06D20EEB860CBDE870404CF0010C33
:101CA0006047DFE80CF0090B02024FF000414FF0F3
:101CB0000000A1F5002170BD19461046012851EB26
:101CC000010418BFD4F5001484BF002001F00041C6
:101CD00070BD0808A0F500114FEA310170470000FF
:101CE00000000000000001020304060708090000CC
:101CF0000000010203040000181D0008000000207D
:101D00001800000028010008301D000818000020FD
:101D10002807000044010008000000000000000047
:101D20000100000010000000000000000024F4008A
:04000005080000ED02
:00000001FF
