:020000040800F2
:100000005808002045020008B3380008FD340008F5
:10001000B1380008D12500080F39000800000000A1
:10002000000000000000000000000000B7380008D9
:10003000D325000800000000B5380008B9380008D2
:100040005F0200085F0200085F0200085F0200080C
:100050005F0200085F0200085F0200085F020008FC
:100060005F0200085F0200085F0200085F020008EC
:100070005F0200085F0200085F0200085F020008DC
:100080005F0200085F0200085F0200085F020008CC
:100090005F0200085F0200085F0200085F020008BC
:1000A0005F0200085F0200085F0200085F020008AC
:1000B0005F0200085F0200085F0200085F0200089C
:1000C0005F0200085F0200085F0200085F0200088C
:1000D0005F0200085F0200085F0200085F0200087C
:1000E0005F0200085F0200085F02000800F002F8EB
:1000F00000F098F80AA090E8000C82448344AAF12A
:100100000107DA4501D100F08DF8AFF2090EBAE827
:100110000F0013F0010F18BFFB1A43F0010318473B
:100120006045000080450000103A24BF78C878C1BF
:10013000FAD8520724BF30C830C144BF04680C60ED
:10014000704700000023002400250026103A28BF35
:1001500078C1FBD8520728BF30C148BF0B60704739
:100160006E2900F02E83702900F04D81662904F07D
:10017000F181652904F0EE81672904F0EB816129A2
:1001800004F0EA8103681B0A28BF41F08001692955
:1001900000F0BE80642900F0BB80752900F0B880B3
:1001A0006F2900F01084782900F01981E92900F006
:1001B000AB83E42900F0A883F52900F0A583EF299B
:1001C00000F00D84F82900F018810368DB0928BFCE
:1001D00041F08001632900F0E987732900F0EE8780
:1001E000E32900F0F987F32900F0FE87002070472B
:1001F0001FB59DE8030001F0D5FB01F019F90400DB
:100200000020002103F0BAFF401C606000200021A4
:1002100003F09EFFE06000F0EFFF1FBD10B501F09E
:1002200054F810BD01F0D7F81146FFF7E1FF03F0D5
:10023000E1FE01F085FB03B4FFF7F0FF03BC01F022
:1002400063FD00000948804709480047FEE7FEE7D4
:10025000FEE7FEE7FEE7FEE7FEE7FEE7FEE7FEE776
:1002600004480549054A064B704700000D3900084F
:10027000ED00000858020020580800205804002013
:10028000580400201CB50C46064B7B446946009080
:10029000204600F0B0FA04460020694600F0BEFA9D
:1002A00020461CBD8F0500000FB4044910B503AAF9
:1002B000029800F0B9FA10BC5DF814FB4C01002064
:1002C00070B5044685690068C10601D5302600E096
:1002D0002026C00707D070BDD4E9012130469047E1
:1002E000206A401C20626D1EF6D570BD70B50446B4
:1002F00085690078C00707D170BDD4E901212020AD
:100300009047206A401C20626D1EF6D570BD00002B
:100310002DE9F0410646002410687529314616A5DE
:1003200010D000F0BAF9002802DA404213A507E025
:1003300031688A0701D512A502E0490704D511A545
:10034000012401E000F0B2F900210A2206F124079D
:1003500009E0B0FBF2FCB0FBF2F302FB1C00303012
:1003600078541846491C0028F3D123462A463046C3
:10037000BDE8F04100F0CCB9000000002D00000005
:100380002B00000020000000F0B40D460188090594
:1003900002D5214C7C4402E01F4C7C440E340021E9
:1003A00000F1240608E002F00F071209E75D42EAB7
:1003B00003721B097754491C52EA0307F3D10278F0
:1003C0000023120704D5702D06D009B10223113481
:1003D0002246F0BC00F09CB901231034F8E770B558
:1003E00004460D462146106800F060F90246294691
:1003F0002046BDE870400023C6E7D21D22F0070367
:10040000D3E90023C0E70368126843F020030360C8
:100410000823C3610023B7E7DC4100002DE9F05F4A
:10042000894604464FF0000ADFF874B1FB44C0F877
:1004300020A02046E1688847002874D0252806D0EF
:10044000D4E901219047206A401C2062F1E7002690
:100450005F462046E16888472028054607DB312DA6
:1004600005D2781910F8200C08B10643F1E7B0075F
:1004700001D526F00406C4F81CA00027C4F818A073
:100480002A2D09D0284603F067FA38B304EB870811
:10049000303DC8F8185019E059F8041B204604EB09
:1004A00087029161E1688847012F054618D1E0690C
:1004B000002820DA26F020061DE0D8F8180000EB0E
:1004C000800005EB40003038C8F818002046E1688D
:1004D0008847054603F040FA0028EED1012F0AD0E4
:1004E0002E2D08D12046E16888477F1C0546022F43
:1004F00046F02006C4DBA069002803DA404246F03B
:100500000106A061F00701D026F010066C2D0BD07B
:10051000682D09D04C2D39D06A2D35D0742D35D0A9
:100520007A2D33D016E038E0E1682F462046884720
:10053000B842054609D16C2F26D04FF48060E1689F
:10054000064320468847054604E06C2F1AD04FF436
:10055000807006430DB3A5F14100192802D820355B
:1005600046F400664A462946204626604E46FFF776
:10057000F7FD80B101280BD0F61D26F0070000F131
:10058000080956E74020E4E78020D8E70020D6E7B6
:1005900006F104094DE7284652E7206ABDE8F09FBE
:1005A0006C41000010B5431C02E010F8011B71B152
:1005B0008107FAD14FF0013202C88C1A8C4314EA39
:1005C000C211F9D0C01A0A0603D0C01E10BDC01A4D
:1005D00010BD0A0401D0801E10BD0902FCD0401ECF
:1005E00010BD10B5203AC0F00B80B1E81850203A89
:1005F000A0E81850B1E81850A0E81850BFF4F5AFC3
:100600005FEA027C24BFB1E81850A0E8185044BF4C
:1006100018C918C0BDE810405FEA827C24BF51F8B9
:10062000043B40F8043B08BF7047D20728BF31F8AD
:10063000023B48BF11F8012B28BF20F8023B48BFFE
:1006400000F8012B70474FF0000200B513469446A6
:100650009646203922BFA0E80C50A0E80C50B1F11A
:100660002001BFF4F7AF090728BFA0E80C5048BF2E
:100670000CC05DF804EB890028BF40F8042B08BFCC
:10068000704748BF20F8022B11F0804F18BF00F8C8
:10069000012B704770477047704709684A0501D5BC
:1006A00040B27047C905FCD500B2704709684A05D9
:1006B00001D5C0B27047C905FCD580B2704770B58E
:1006C0000C460546012A05D02878800600D5EA693F
:1006D000002302E0012305E05B1C934202D2E05CB0
:1006E0000028F9D1A869E618C01AA861286A184438
:1006F00028622846FFF7E4FD04E0D5E9012114F85B
:10070000010B9047B442F8D32846FFF7EFFD70BDC8
:100710002DE9F0470D4699469246044600F124081B
:100720000168880604D5E06921F01001216000E02D
:100730000120A84201DD471B00E00027A1697A19CA
:1007400002EB0900081AA0612078C00602D42046F6
:10075000FFF7B6FD002608E0D4E901211AF80600EB
:100760009047206A401C761C20624E45F4DB2078BE
:10077000C0060AD52046FFF7A3FD06E0D4E9012113
:1007800030209047206A401C2062381EA7F10107E4
:10079000F4DC07E0D4E9012118F805009047206A4D
:1007A000401C2062281EA5F10105F3DC2046FFF75E
:1007B0009DFD2078000602D50220BDE8F0870120CB
:1007C000FBE711680268006A530501D508700AE06A
:1007D000D30501D5088006E0130603D5C217C1E989
:1007E000000200E0086001207047000001694A1C17
:1007F00002610878704700B58FB0CDE90131002162
:10080000059105497944CDE9031011466846FFF783
:1008100005FE0FB000BD0000E5FFFFFF0A6802F80B
:10082000010B0A6070470000074B70B50D467B4412
:10083000FFF7E1FF0446284600F0DAFC10B14FF064
:10084000FF3070BD204670BD173600002DE9FF5FF8
:1008500015468A460446DFF8AC80F8440027D8E9FC
:1008600000103E46CDE9001010E03AF816106A4636
:1008700002A800F05DFD411C07D02178890603D550
:10088000E269391891420DD80744761C2078800619
:1008900002D5E069B84205DDAE42E6DB3AF8160063
:1008A0000028E2D1A069C01BA0612046FFF708FD27
:1008B000D8E90010CDE90010002017E03AF8181030
:1008C0006A4602A800F034FDB0F1FF3F81460BD02C
:1008D00000250DF1080B05E0D4E901211BF8050006
:1008E00090476D1C4D45F7D308F10100B04280469A
:1008F000E4DB206A384420622046FFF7F7FCBDE8BD
:10090000FF9F0000523D00002DE9F0418046D21DBE
:1009100022F007020025D2E90002F52915A614D01D
:10092000011E72F1000106DA0023D0EB030063EB35
:10093000020211A608E0D8F800108B0701D50FA617
:1009400002E0490701D50EA601251146002408F151
:10095000240704E000F04EF830323A55641C50EAA7
:100960000102F7D12B46324621464046BDE8F04110
:10097000FFF7CEBE000000002D0000002B0000009D
:100980002000000030B4002100F1240408E002F04F
:100990000705D208303542EA4372DB086554491C2A
:1009A00052EA0305F3D10468002310A2250707D5F6
:1009B000A40600D421B1C46901230DA2641EC46140
:1009C00030BCFFF7A5BE10B5044621461068FFF7FE
:1009D0006DFE02462046BDE810400023D2E7D21D3E
:1009E00022F00701D1E90023CCE70000000000005D
:1009F0003000000030B5B0F10A024FEA900E71F1FC
:100A000000034EEA817EB0EB0E0061EB91014FEAEC
:100A1000101E4EEA017E10EB0E0041EB11114FEA61
:100A2000102E4EEA016E10EB0E0041EB11214FEA41
:100A3000104E4EEA014E10EB0E0041EB11414018F2
:100A400041F100014FEAD00040EA41704FEAD10184
:100A500010EB80054FEA810444EA907444EB0104F2
:100A60006D1944EB0404521BA3414FF0000348BF2F
:100A70000A3200D530BD401C41F1000130BD704745
:100A80002DE9FF4F0C461E464FF0FF378BB0D2E9E1
:100A90000001DDF860800A908A46C1F30A5505B965
:100AA0003D46002108464FF00000BAF1000F00F467
:100AB000400005DA00EB80004FF4400101EA5000ED
:100AC0004FEA9059B9F1010F00DDB9460A9850EA92
:100AD0004A000ED044F61050A5F2FF3545432F14BE
:100AE000B8F1000F1ED07542291E1EDDC9F10002AB
:100AF0001CE0B8F1010F4FF0000001D0302103E0FD
:100B0000F24305E02154401CB042FBDB304600229A
:100B1000002121540B99C1F80880C1E900200FB0D1
:100B2000BDE8F08FBD1B6D1CDEE74A4600DA694266
:100B300006A800F0E9FC06AB93E8070003AB83E8E6
:100B4000070050460A9901F07BF98DE80700A0F5EF
:100B500000501F3800900398002D0ADD42F21F015B
:100B60004A460844002303A90390684601F0E4FBC9
:100B700009E0A0F500504A461F38002303A903905E
:100B8000684601F0EEFB8DE807000004000C03D07E
:100B90004FF0FF30410800E01046B8F1000F03D0DD
:100BA0000022009215461EE0751E05D4FFF722FFB5
:100BB000303262556D1EF9D5B3460122084302D08A
:100BC00000227F1C04E02078302801D100227F1E03
:100BD000002A099784D01DE0112D07DAFFF70AFFDC
:100BE000303262556D1C50EA0102F5D1084302D043
:100BF0000098C8B10EE00021681E05E0235C625C2D
:100C000063542254401E491C8142F7DBAB46A81BAB
:100C1000401E0990002004F80B000B98099AC0F8B8
:100C20000880C0E9002B7AE711264FF0000857E74B
:100C30002DE9F04F88460446D21D22F0070191B0FD
:100C4000D1E90001CDE90A0102F062FE02460B98EB
:100C5000C00F01D02D2007E02068810701D52B208F
:100C600002E0202101EAC000032A099001D0072AEE
:100C700005DB03464146204600F006FC0BE12078E8
:100C8000800601D5E06900E00620B8F1650F8146D5
:100C900006D0B8F1660F18D0B8F1670F70D131E007
:100CA0000020B9F1110F009001DB112301E009F1DF
:100CB00001030AAA01A90CA8FFF7E2FEDDE90C7006
:100CC000002609F10105834647E001204B460090CC
:100CD0004FF000470AAA01A90CA8FFF7D1FEDDE9F1
:100CE0000DB00C995D46002610B909F101000D18F0
:100CF000B9EB050003D4C0F1FF3609F10105A5EBFE
:100D000009002BE0B9F1010F01DA4FF001090020D1
:100D1000B9F1110F0090484601DD112300E00346B0
:100D20000AAA01A90CA8FFF7ABFEDDE90C704D463D
:100D300000268346207800070AD4AB4500DA5D46DA
:100D400001A8012D04DD411911F8011C302907D03B
:100D50004F4502DA17F1040F04DA012082460FE052
:100D60006D1EEEE7002F02DCED1B3E4403E0781C15
:100D7000A84200DD7D1CB81B00F1010A4FF00047BE
:100D80002078000703D4AA4501DB4FF0FF3A002189
:100D9000B7F1004F0DF143088DF8431024D0022025
:100DA0002B23002F01DA7F422D230A21021EA0F1FE
:100DB000010000DC5FB197FBF1FC97FBF1F201FB56
:100DC0001C7C17460CF1300C08F801CDEEE7A8F1B9
:100DD000010003702188090501D5452100E0652146
:100DE000A0F1010800F8011C09980FA9A1EB080760
:100DF000FF1D00B10120411901EBEA70A1693844DF
:100E0000081A401EA0612078C00602D42046FFF7D1
:100E100057FA099828B1D4E901219047206A401C6B
:100E200020622078C00622D52046FFF749FA1EE04E
:100E3000002E04DBB34502DD01A8805D00E0302018
:100E4000D4E901219047206A401C2062761CAAF157
:100E500001005FEA000A0AD100F0EAFAC0680168FE
:100E6000405CD4E901219047206A401C2062281E82
:100E7000A5F10105DCDC07E0D4E9012118F8010B3C
:100E80009047206A401C2062381EA7F10107F3DC5E
:100E90002046FFF72BFA032011B041E62DE9F04F71
:100EA00004460D46D21D22F0070089B0D0E9009714
:100EB0004846394602F02CFD0246F80F01D02D239A
:100EC00007E02068810701D52B2302E0202101EAF9
:100ED000C0038DF820300BB1012000E00020032A70
:100EE000824601D0072A04DB2946204600F0CCFACE
:100EF0003FE12078800601D40D2500E0E569C7F3C5
:100F00000A560D2D49DA00214FEA175B08464FF0CB
:100F10000000002F00F4400007DA00EB80004FF4DF
:100F2000400100EBD07001EA60008115012901DD6C
:100F30004FF0FF3100224FEA850CBCF1180F06D3A9
:100F40001346ACF118004FF08052C24003E04FF45A
:100F5000801323FA0CF30CF10C0CBCF1200F04D31A
:100F6000ACF1200C09FA0CF001E007FA0CF00029B2
:100F70004FF0004801DD18B90FE00ED140450CD309
:100F800019EB02095F4121B9404502D19F4329EA8B
:100F90000209BBEB175F00D0761C2088000502D544
:100FA0007B48784402E07A487844193808AA30230C
:100FB00002F80A30037C0AF10101002E0AF1020A4C
:100FC00053546A4602DC4FF0300101E04FF031012A
:100FD0004FF001088DF8001002D0A6F2FF3603E0B2
:100FE00059EA470100D06B4E002D02DC2178090739
:100FF00004D54FF002082E218DF80110C4460021BF
:101000000BE0C7F303433F01C35C491C6D1E02F8AC
:101010000830052908F1010801DA002DF1DC002172
:101020000CE000EB1973491C1B786D1E082902F8AF
:1010300008304FEA091908F1010801DA002DF0DC47
:1010400021688B0602D516E0A8F10108E04505DD10
:1010500002EB080313F8013C302BF5D0B8F1000F78
:1010600009DD02EB080313F8013C2E2B03D109071D
:1010700001D4A8F10108002D05DD3E2102F8081079
:101080006D1E08F10108407C002E02F8080008F1EE
:10109000010804DA2D20764202F8080002E02B2035
:1010A00002F808000A214FF47A70864208F101081C
:1010B0000BDB96FBF0F3303302F8083096FBF0F3CD
:1010C00008F1010800FB136601E0642E0CDB6420CC
:1010D00096FBF0F3303302F8083096FBF0F308F19A
:1010E000010800FB136601E00A2E06DB96FBF1F017
:1010F000303002F8080008F1010896FBF1F001FB1E
:101100001060303002F80800A16908F1010808EB0E
:10111000050202EB0A00081AA0612078C00602D47A
:101120002046FFF7CDF8216A08AE01EB0A002062E5
:1011300004E0D4E9012116F8010B9047BAF1010A45
:10114000F7D22078C00602D52046FFF7B9F86E46E0
:1011500009E016F8010B3E280FD0D4E90121904791
:10116000206A401C2062B8F10108F2D22046FFF745
:10117000BDF809B00320BDE8F08F206A2844206242
:1011800003E0D4E90121302090476D1EEBD3F8E74E
:101190002536000002FCFFFF10B5436913B1AFF321
:1011A000008001E0FFF78BFA012010BD127800F1FA
:1011B00024010A7000224A700122EDE711684FF005
:1011C000FF32E9E710B5436913B1AFF3008001E0E6
:1011D000FFF73CFB012010BD128800F1240182843E
:1011E0000022C2840122EDE711684FF0FF32E9E7E7
:1011F000007B00F08000704710B542485421FFF793
:1012000022FA41485421FFF71EFA40485421FFF7C3
:101210001AFA3F493B483C4A3F4B08603D490A6047
:101220003A491960531C0365481C10650120086584
:101230003B48344A39A1784400F0E6FA20B93848EE
:1012400078440A3800F085FB37482F4A35A17844A6
:1012500000F0DAFA20B9344878440A3800F079FB13
:1012600032482A4A2FA1784400F0CEFA20B92F48FC
:1012700078440A3800F06DFB40232248DC0000214E
:10128000224600F09EFA20B125487844543800F0F8
:1012900060FB1D4822464023002100F092FA20B155
:1012A00021487844543800F054FB18482246102353
:1012B000002100F086FA002806D01C487844BDE8DA
:1012C0001040563800F045BB10BD104870B5006D99
:1012D00020F001040B4800F00DFB0B4800F00AFB66
:1012E0000A4800F007FB09E0206D20F001052046C8
:1012F00000F000FB204600F09FF82C46002CF3D1B4
:1013000070BD0000F80000204C010020A00100206A
:1013100024000020280000202C0000207200000083
:10132000A433000077000000903300007C330000FD
:1013300070B516460C46054600F072F8036893F83F
:101340000101012806D0FF2C0FD8185D68B10120DB
:101350002C7070BDD3F807013246214603F2071303
:1013600003442846BDE8704018474FF0FF3070BD79
:101370000EB5CDE90001FFF715F90290694601208D
:10138000ABBE0EBD08B5694600900220ABBE08BDDD
:101390001FB58DE8070069460520ABBE04B010BD3F
:1013A0001FB58DE80F0069460620ABBEF6E708B50D
:1013B000694600900920ABBE08BD1CB5CDE900010F
:1013C00069460A20ABBE1CBD704708B5694600904F
:1013D0000C20ABBE08BD754600F0C2FAAE46050053
:1013E0006946534620F00700854618B020B5FEF741
:1013F00037FFBDE820404FF000064FF000074FF0E8
:1014000000084FF0000B21F00701AC46ACE8C00922
:10141000ACE8C009ACE8C009ACE8C0098D4670472B
:1014200010B500F005F8001D10BD00BF512D0000E3
:10143000004870471402002070B50446051F00F0F4
:1014400095FA0068002C14BF446870BD002C18BFCA
:10145000AC423CBF20466468F8D301680A18AA422F
:1014600018BF456003D12A68054611440160286809
:101470004119A1421CBF6C6070BD61686960216840
:101480000844286070BD00002DE9F0411F46044665
:1014900003260168072A01F4006004DB08B116A5E1
:1014A00005E016A503E008B115A500E015A521F09B
:1014B00010002060A069C01EA0610FB1401EA06195
:1014C0002046FEF7FDFE4FB1D4E901213846904792
:1014D000206A401C2062C01C206206E0206AFAE7F5
:1014E000D4E9012115F8010B9047761EF8D2204669
:1014F000FEF7FCFEBDE8F0814E414E006E616E00CD
:10150000494E4600696E66002DE9F0478146164651
:101510008AB0354878440DC88DE80D0032487844CB
:10152000801C03AC0DC884E80D0041F69B300844D4
:10153000372190FBF1F290FBF1F5A5F1800501FB5D
:1015400012041B3C02D56442012000E00020DFF8B9
:1015500098A080460027FA44AAF1BE0A0EE0E007F0
:101560000AD03246684607EB470101230AEB8101A6
:1015700000F0F7FE8DE8070064107F1C002CEED110
:10158000194F7F44AE3F19E0E80715D007EB041070
:101590000DF1180A90E80E008AE80E00C068F042CB
:1015A00001D1981908903246012306A903A800F03A
:1015B000D8FE03AB83E807006D10641C002DE3D157
:1015C0004FF0010332466946B8F1000F03A802D07C
:1015D00000F0B2FE01E000F0C4FEC9E90001C9F864
:1015E00008200AB0BDE8F087503100002DE9F0472F
:1015F00005460C46C86820F4201040F48000C860FE
:10160000800602D5084600F0FEFAE06841F2820149
:101610004FF0FF390140022903D0204600F09CFA28
:10162000B5E000F42041B1F5004F0FD1C00306D55D
:101630006168E06A884200D80846606006E0206978
:10164000E06260606069FFF7C0FEA061A0680022F0
:10165000EEB200280DDAE1688B050AD4C043A06021
:1016600041F490302260E0606068411C6160067067
:10167000A5E0E0689046226040F40050E0602069F8
:1016800068BB6069FFF793FE012704F12405A0B150
:10169000A08910F4407F08D0E06900F0B2F9206121
:1016A00018B1E06840F4006016E0E7612561E06889
:1016B00020F4407040F480600EE0E06900F0A1F991
:1016C00000282061F1D0E06840F4006010F4407F11
:1016D000E06002D140F48070E06020696060E06802
:1016E00025696FF0010AC1051FD56168E06A88426B
:1016F00000D80846411B04D02246284600F036FA9E
:10170000F0BBE068010203D5E562C4E9015854E08A
:10171000691CE1626160E16940F48030491EC4E9FE
:10172000021030462E70BDE8F087010202D500F4A9
:1017300080320AE06068411C61600670E0680A2E31
:1017400040F48030E06006D00022E16A60688142A7
:1017500003D90B4602E00122F7E70346A7895B1B8A
:101760007F0503D4E7699F4200DDE2B1814200D8E2
:101770000146E5620F1AC4E90158002B09DD00E0BB
:1017800005E022461946284600F0F0F908B148461F
:10179000C9E747B1A069E5626560C01BA061E06868
:1017A00040F01000E060E068000208D56168A069C0
:1017B000E562491B08446560A0615046B3E73046C6
:1017C000B1E770B5C468A50713D0650211D4B2F5AE
:1017D000807F09D0B2F5007F06D0B2F5806F08D1C6
:1017E000012300F1240106E05D1E6FF07F46B54243
:1017F00001D3012070BD0161C361416024F47061B7
:101800001143C160002070BD2DE9F0410C46074630
:101810001646104600F06EF82078611C61280AD048
:10182000722802D077283CD102E00125002405E08F
:101830000225042402E0082448F2020511F8010BF5
:101840002B2806D0622809D011F8010C74280AD080
:101850000BE045F0030544F00204EFE745F0040512
:1018600044F00104EAE744F0100438462146FFF74B
:101870007FFD411C15D00021316171604FF4007172
:10188000F560F1617061200704D530460222002125
:1018900000F0E6F8306D40F0010030653046BDE8FC
:1018A000F0810020FBE72DE9F0410D460646104C83
:1018B000206DC10704D0410804D020F00104F7E7EF
:1018C00022460EE0542000F09CF807000ED0206D58
:1018D00047F001010843542120653846FEF7B3FE66
:1018E0003A4629463046BDE8F0418DE70020D6E76C
:1018F000F80000202DE9F04704464FF000094FF0B2
:10190000FF37C568D4E90486A80707D0204600F051
:1019100057F93046FFF736FD002802DA3846BDE8B1
:10192000F087280502D54046FFF786FD4C2120466A
:10193000FEF789FE206D20F0010020654846EEE7A5
:1019400010B50446AFF300802046BDE81040FEF716
:1019500072BC10B500F07EF9BDE8104000F074B91B
:1019600000487047F40100207047000000487047AD
:10197000FC010020704770477047704738B5044637
:101980000A4600206946AFF30080002808BF38BD32
:1019900002460099204600F0C4F9012038BD01201C
:1019A00000F013BAF8B5AFF30080054600200C46EE
:1019B000102000BF0646A819A0420DD9324669463C
:1019C0000020AFF30080070008BF00F0FEF9009888
:1019D000A04218BF0546C419FFF7C8FF05600746B7
:1019E000F01D20F007004619284600F093F9B44294
:1019F00008BFF8BDA21B31463868BDE8F84000F0CA
:101A000090B970B50646FFF7B1FF056806F10B0007
:101A100020F00704B4429CBF002070BD2B466A68CA
:101A2000BAB11068A04210D304F1080188423CBF4B
:101A30005068586007D35168101941601168091B3C
:101A4000016058601460101D70BD13465268002A72
:101A5000E7D121462846FFF791FF0028DED170BD6F
:101A60002DE9F041044616460D464769007B800784
:101A70002ED03846FFF79BFC50BB3EB3012E02D060
:101A8000022E25D104E0204600F065F905441DE052
:101A90003846FFF79AFCE168002841F01001E16048
:101AA00005DA204600F058F80120BDE8F081C903AE
:101AB0000BD56268E16A914200D81146A2691144CF
:101AC0002269891A814200DD08460544002D01DAA9
:101AD0000220EAE7E16A6068E268814206D2910387
:101AE000E06203D522F4003141F01002A66900271C
:101AF000AE4213DCE16A814201D90B4600E00346A5
:101B000003EB060C2369ACEB030CAC4506DD81420C
:101B100001D98C4600E084469C4505D1A76027602A
:101B200042F02000A5620DE0AD1BE669AE1B8142CC
:101B3000A66000D90846C01A281A206058196060AB
:101B400022F0200003490840E060002084F848703B
:101B5000ABE70000BFCFD7FFC16821F4001141F00F
:101B60008001C16000218160016070472DE9F0476C
:101B7000814614460E464FF0FF383248D568576903
:101B8000054209D03846A169FFF717FC002811DB90
:101B90002C48C0430540E5602B463246494638464E
:101BA000FFF7F6FBA16920F00042B21A11440028A9
:101BB000A16103D02046FFF7CFFF4046BDE8F08784
:101BC00070B504460569C06A6168884200D8084655
:101BD000E16821F42011E160C90312D5A84208D0C0
:101BE0002246411B2846FFF7C1FF10B14FF0FF30DE
:101BF00070BD0020E562C4E90150E06820F4803047
:101C0000E060002070BD10B50446C06820F02000E0
:101C1000E060A16AA06988420DD02046FFF7D0FF9E
:101C2000E06820F4405040F01000E060A06AA0613D
:101C30002069E062606044F24001E0688843E0604F
:101C400010BD000010000200002801D000F05CB8B8
:101C50007047000010B5014602A000F09DF8012079
:101C600010BD000053494752545245443A20526532
:101C70006469726563743A2063616E2774206F70C3
:101C8000656E3A20000000004FF0013C50F8042B34
:101C900051F8043B9A4221D1A2EB0C03934313EA7F
:101CA000CC1317D150F8042B51F8043B9A4215D1AC
:101CB000A2EB0C03934313EACC130BD150F8042B83
:101CC00051F8043B9A4209D1A2EB0C03934313EA67
:101CD000CC13DBD04FF00000704700BFD01A01BA20
:101CE000B1FA81F101F0180122FA01F0CB40C1F103
:101CF0002001DBB2C0B2C01A2CFA01F3D11A914311
:101D000011EAC311E6D1704701491820ABBEFEE7C6
:101D10002600020000210160C0E901107047102078
:101D20007047034640688C46002818BF88423CBF75
:101D300003464068F8D318681844884207D00CF16D
:101D4000030020F00700001D411A521A0146081D29
:101D50000A60FFF771BB10B50146C268900703D057
:101D6000900607D5886A0AE000F03EF8012101607C
:101D7000881E10BD8B69486818440B69C01A91F819
:101D800048301BB191F84910401A10BD1103FCD521
:101D90000028FADD401E10BD70B505460C460A202D
:101DA00000E06D1C00F018F835B128780028F8D153
:101DB00002E0641C00F010F814B120780028F8D17B
:101DC000BDE870400A2000F007B810B500F010F828
:101DD000BDE81040FFF738BF08B569468DF8000030
:101DE0000320ABBE08BD000000487047F40100208E
:101DF00010B5012805D0002103A0FFF7CDFF012079
:101E000010BD09A1F8E7000053494752544D454D14
:101E10003A204F7574206F662068656170206D658B
:101E20006D6F7279000000003A2048656170206D86
:101E3000656D6F727920636F72727570746564007E
:101E40005FEA400C08BF91F0000F4FEA8C234FEA85
:101E5000C12243EA51514FEA1C5018BF00F5F0402F
:101E60004FEA300018BF41F000415FEA6C5C00F0BF
:101E70002980BCF1FF3F08BF40F080407047130C41
:101E800006BF12044FF0100C4FF0000C130E04BFED
:101E900012020CF1080C130F04BF12010CF1040C18
:101EA000930F04BF92000CF1020CD30F04BF520039
:101EB0000CF1010C11464FF00002A0F11F00A0EB45
:101EC0000C00704711F0004F08BF704731F000411F
:101ED0003FF4D5AF0B0C06BF09044FF0100C4FF0C8
:101EE000000C0B0E04BF09020CF1080C0B0F04BF11
:101EF00009010CF1040C8B0F04BF89000CF1020CDA
:101F0000CB0F04BF49000CF1010CCCF12003A0EB76
:101F10000C0022FA03F302FA0CF241EA030100F189
:101F20000100704720F07F4C80EA030023F07F47D8
:101F3000ACEB070303F57C5300F0004003F1FF0313
:101F40002DE980494FEA154B09B44FEA144325EABD
:101F50000B4E24EA03480FF2042606EB1327490828
:101F60003E785FEA320203FB0667C7F5000707FB0E
:101F700006F64FEA54374FEAD64606F1020607FB4B
:101F8000066CCCF1005C4FEA1C472CEA074C07FBBF
:101F900006F40CFB06F504EB15464FEA961634BF23
:101FA00000204FF000404FEAD13706FB07FC4FEA14
:101FB0001C4C0CFB0BF7D21B03FB0CF761EB07016E
:101FC0000CFB0EF7B0EB074072EB17420CFB08F767
:101FD00034BFA2EB0742B2EB074261EB17414FEA75
:101FE0000C444FEA910706FB07FC4FEA1C4C0CFB24
:101FF0000BF7B0EBC74072EB573203FB0CF734BF63
:10200000A2EBC742B2EBC74261EB57310CFB0EF7B4
:10201000B0EBC70072EB57720CFB08F734BFA2EBB2
:10202000C702B2EBC70261EB5771039F4FEA8161B0
:1020300041EA921104EBCC044FEAD1374FEA8262B5
:1020400006FB07FC42EA90124FEA80604FEA1C4C04
:102050000CFB0BF7D21B03FB0CF761EB07010CFB2E
:102060000EF7B0EB074072EB17420CFB08F734BFDA
:10207000A2EB0742B2EB074261EB17414FEA8C55E6
:102080004FEA910704EB9C2406FB07FC4FEA1C4C2B
:102090000CFB0BF7B0EBC74072EB573203FB0CF7AE
:1020A00034BFA2EBC742B2EBC74261EB57310CFB26
:1020B0000EF7B0EBC70072EB57720CFB08F734BF9A
:1020C000A2EBC702B2EBC70261EB577115EB4C25CF
:1020D0004FEA816141EA92114FEA82624FEAD137B9
:1020E00042EA901206FB07FC44F100044FEA8060CC
:1020F0004FEA1C4C0CFB0BF7D21B03FB0CF761EBFC
:1021000007010CFB0EF7B0EB074072EB17420CFB1C
:1021100008F734BFA2EB0742B2EB074261EB17416D
:1021200015EB1C154FEA813141EA92414FEA8232A8
:1021300042EA90424FEA80304FEA0C7644F10004C4
:1021400048EA03434EEA0B484FF0000EB2EB080C8E
:1021500071EB030724BF624639464EEB0E0E4FF07B
:10216000000B0018524149414BEB0B0BB2EB080C32
:1021700071EB03077BF1000B24BF624639464EEB3F
:102180000E0E4FF0000B0018524149414BEB0B0B68
:10219000B2EB080C71EB03077BF1000B24BF624626
:1021A00039464EEB0E0E51EA020718BF46F0010603
:1021B00016EB0E7655F1000254F1000103D5BDE88F
:1021C0008901BDE80088BDE88901BDE80048B6196D
:1021D000524141EB0101A3F10103704780807F7EF2
:1021E0007D7C7B7A7978777676757473727171708D
:1021F0006F6E6E6D6C6C6B6A6A696868676666653F
:102200006464636362616160605F5F5E5E5D5D5CCC
:102210005C5B5B5A5A59595858575756565555553D
:102220005454535352525251515050504F4F4F4E9D
:102230004E4D4D4D4C4C4C4B4B4B4A4A4A494949EB
:10224000484848474747474646464545454444442D
:10225000444343434342424242414141002B9C4656
:1022600030D477002BD01CB54FEA370703B44FF0BA
:1022700010004FF01001BAF1000F06D0BCF1000FB2
:10228000DCBF40F0080040F008014FF000000FBC38
:10229000BDE810400BF1010BBBF1010F08BF5FEA75
:1022A000170722BF12F1010211F101014FF00041A5
:1022B00043F1000300F0004043EA00007047F9D307
:1022C0005708D0E746EA064613F1400F4FEA164694
:1022D0001FDD13F1200FDFBF16430A460021203314
:1022E0005B42BED0C3F1200746EA064602FA07F772
:1022F0004FEA164646EA0706C3F1200722FA03F220
:1023000001FA07F721FA03F14FF0000342EA07024E
:10231000A7E746EA020646EA06464FEA164646EAB6
:102320000106BCBF46EA0646360C4FF000034FF0EC
:1023300000024FF0000194E72DE9804C9A46934645
:1023400070B491E8380007C831EA400C48BF34EA5D
:10235000430C03D5FFF7E6FDFFF780FFF0BCBDE8B7
:10236000008C2DE9804C9A46934670B491E8380071
:1023700007C810F0804F08BF13F0804F03D100F062
:1023800005F8FFF76BFFF0BCBDE8008C20F07F473D
:1023900080EA030023F07F4C07EB0C03A3F57C538A
:1023A00000F00040A3F1FE0392F0000F00F0B380B4
:1023B00095F0000F00F077802DE901494FEA1140B8
:1023C0004FEA144621EA004800FB06FC24EA0647CF
:1023D00008FB06F607FB08F800FB07F718EB0648B2
:1023E0004CEB164C4FEA124B18EB07484FEA1546D8
:1023F0004CEB174022EA0B4E0BFB06FC25EA064786
:102400000EFB06F607FB0EFE0BFB07F71EEB064E58
:102410004CEB164C4FF000061EEB074E4CEB174BE7
:1024200018EB0B0840F1000018EB0E0B58EB0008FE
:1024300040F100008F1A4FF000013CBFC943661BFA
:1024400014BFB5EB040C00213CBFC943F61B4FEA97
:1024500017444EEA8E0E27EA04454FEA1C4704FB58
:1024600007622CEA074C05FB07F70CFB05F604FB9B
:102470000CFC16EB074642EB174216EB0C4642EB00
:102480001C421BEB060658EB0202414146EA9E063F
:1024900001D5BDE80189B619524141EB0101A3F113
:1024A0000103BDE801894FEA14454FEA114724EAC8
:1024B000054621EA074C05FB07F406FB07F70CFB72
:1024C00006F105FB0CFC11EB074144EB17444FEA06
:1024D000124711EB0C4144EB1C4422EA074C05FB6C
:1024E00007F206FB07F70CFB06F605FB0CFC16EBE8
:1024F000074642EB174216EB0C4642EB1C456A18A6
:1025000054F1000148BF7047B619524141EB010137
:10251000A3F10103704795F0000F37D04FEA114245
:102520004FEA144721EA024624EA074C02FB07F16E
:1025300006FB07F70CFB06F402FB0CFC14EB07444C
:1025400041EB17414FEA154714EB0C4441EB1C419A
:1025500025EA074C02FB07F506FB07F70CFB06F61E
:1025600002FB0CFC16EB074645EB174516EB0C4639
:1025700045EB1C42121951F1000148BF7047B619D2
:10258000524141EB0101A3F1010370474FEA1445A9
:102590004FEA114724EA054621EA074C05FB07F1FB
:1025A00006FB07F70CFB06F24FF0000605FB0CFCE0
:1025B00012EB074241EB174112EB0C4251EB1C416D
:1025C00048BF7047921841EB0101A3F10103704726
:1025D000FEE7704770B5044600F004F90546601C3C
:1025E00002D004480078044400F0FCF8401BA042EC
:1025F000FAD370BD140000202DE9F84FDFF8B89130
:10260000002409F1040A0AF1040B23460F270BF1F9
:10261000040EC9E00125A5402A40AA427DD1674E9B
:10262000D1F804C0ACEB0608B44532D014DCBCF1E0
:10263000030F3AD009DCBCF1000F2AD0BCF1010F26
:102640001CD0BCF1020F31D11DE0BCF1110F17D02D
:10265000BCF1120F2AD119E0B8F5881F19D006DC99
:10266000B8F5803F15D0B8F5801F1FD111E0B8F53F
:10267000001F0ED0B8F5041F18D10AE0CB6815E092
:10268000CB681B1D12E0CB6808330FE0CB680C331E
:102690000CE08B682BB1012B4FF0080303D0456190
:1026A00004E0042302E0056100E00023FF2A01D8D2
:1026B000064601E000F104064FEA840501D9A5F1C0
:1026C0002005D6F8008007FA05FC28EA0C0803FA72
:1026D00005F548EA0508C6F800804D68ED0062D5AA
:1026E000374DAE6946F00106AE61AD6924F00306D0
:1026F00005F001050095334D06EB050CDCF808509C
:10270000A607360F07FA06F825EA0805DFF8B880AD
:10271000404503D14FF0000817E044E0DFF8AC80FB
:10272000404502D14FF001080FE0DFF8A48040459A
:1027300002D14FF0020808E0DFF89880404502D14E
:102740004FF0030801E04FF0040808FA06F848EAE1
:102750000508CCF808804D68D9F80060ED034D46B7
:1027600001D5164300E096432E604D68DAF800600C
:10277000AD03554601D5164300E096432E604D68E3
:10278000DBF80060ED025D4601D5164300E096439C
:102790002E604D68DEF80060AD02754601D5164327
:1027A00000E096432E60641C0D682A46E5407FF4E5
:1027B00031AFBDE8F88F00000004014000001110A7
:1027C000001002400000014000080140000C0140E0
:1027D00000100140001401400AB101617047090472
:1027E000FBE70000014880687047000014000020EB
:1027F000006C704790F83D007047000070B5040011
:1028000025D094F83D00002520B984F83C5020469E
:1028100000F026FB242084F83D002068016821F0A8
:10282000010101602068016841F4004101602068F5
:10283000016821F40041016000F076FC4D4A6168B6
:10284000914201D84C4900E04C49884201D2012014
:1028500070BD4B492368B0FBF1F15E6826F03F067E
:102860000E435E606368934206D94FF496735943F2
:102870004FF47A73B1FBF3F12368491C1E6A26F00A
:102880003F06314319626168914210D84900401EE9
:10289000B0FBF1F2521CC2F30B02042A01D2042055
:1028A00022E0B0FBF1F0401CC0F30B001CE0A2687A
:1028B000F2B301EBC10303EB0116431EB3FBF6F3C6
:1028C0005B1C43F480431B0549D092B301EBC1026A
:1028D00002EB0111401EB0FBF1F0401CC0F30B00F5
:1028E00040F4804040F400402168CA694CF6FF7310
:1028F0009A431043C861D4E9071001432068026875
:1029000022F0C00211430160D4E9030101432068B1
:10291000826848F2FF339A4311438160D4E905018C
:1029200008432168CA6822F0FF021043C86001E032
:102930000EE016E02068016841F0010101602564A5
:10294000202084F83D00256384F83E50002070BDAF
:1029500001EB4106431EB3FBF6F35B1CB3E701201A
:10296000C2E701EB4101401EB0FBF1F0401CC0F397
:102970000B00B7E7A086010080841E0000093D001F
:1029800040420F002DE9FF4F81B089460446FFF712
:1029900029FF054694F83D004FF0010820287DD11D
:1029A0001923012250492046009500F0A9FE002875
:1029B00074D194F83C00012870D0012084F83C00C8
:1029C00020680168C90703D1016841F00101016075
:1029D0002068016821F400610160242084F83D0032
:1029E000002626644148E0624FF0011B2027206842
:1029F000016841F48071016000950022594620462B
:102A0000049B00F07DFE50B120680068C00502D52F
:102A10004FF400702064032005B0BDE8F08F2168FA
:102A200009F0FE000861FFF7DDFE216805464869F0
:102A30004969C0F34000C1F380214FF0A00A0FE0C4
:102A4000FFF7D0FE411B0498814200D808B984F8F2
:102A50003DA0216848694969C0F34000C1F3802165
:102A600094F83D20A02A02D008B90029E8D084F8C3
:102A70003D7020684169C943890716D4016841F453
:102A8000007101602068416980691923012216499B
:102A90002046009500F034FEB8B900E021E084F84B
:102AA0003D7084F83C600020B6E7016841F4007195
:102AB000016021686FF480604861192301220A498E
:102AC0002046009500F01CFE08B10120A4E7039801
:102AD00008F1010880458AD384F83D7084F83C6091
:102AE000F3E7022098E70000020010000000FFFF5B
:102AF0002DE9F84F0025DDF82890984617468A46BC
:102B000004460095FFF76EFE064694F83D00202827
:102B10007AD11923012283492046009600F0F0FD66
:102B20000028F5D194F83C0001286DD0012084F8EC
:102B30003C0020680168C90703D1016841F0010128
:102B400001602068016821F400610160222084F89E
:102B50003D00102084F83E0025646762A4F82A80B6
:102B6000608D20857048E06233464A4651462046D3
:102B700000F0DCFC00287DD1208DDFF8B08120271B
:102B800068B1012814D00228206801681ED041F4E1
:102B9000806101602068416980690090B5E020682B
:102BA000416981690091016841F400710160ACE004
:102BB0002068016821F48061016072B62068416973
:102BC00081690091016841F400710AE041F40061FB
:102BD000016072B62068416981690091016821F441
:102BE0008061016062B690E0032868D801280CD0AB
:102BF00002284B464FF000024146204600960FD077
:102C000000F07EFDB0BB10E08AE032464946204627
:102C100000F0F5FD70BB20680069616A08706BE028
:102C200000F06EFD30BB72B634E02068016821F41C
:102C30008061016072B620680069616A0870606A2C
:102C4000401C6062208D401E2085608D401E608586
:102C5000374846F2A8110068B0FBF1F0C0EBC000A5
:102C600000EB80000090401E009008D02068406972
:102C7000C04300E029E040070CD50098F3E744F892
:102C8000305F6773A573206940F02000206162B651
:102C900025731AE02068016841F400710160206822
:102CA0000069616A0870606A401C6062218D491E7B
:102CB0002185618D491E618562B621681AE0324620
:102CC0004946204600F09BFD10B10120BDE8F88F79
:102CD00020680069616A0870606A401C6062218D2A
:102CE000491E2185618D491E618521684A69D2434B
:102CF00052070AD409690170606A401C6062208D25
:102D0000401E2085608D401E6085208D00287FF448
:102D10006BAF84F83D7084F83E5084F83C50D5E7A2
:102D20000220D3E7020010000000FFFF04000100B2
:102D3000200000202DE9F84F1F4690468A460446A1
:102D4000DDF82890FFF74EFD054694F83D00202859
:102D50007FD11923012240492046009500F0D0FC84
:102D6000002876D194F83C00012872D0012084F824
:102D70003C0020680168C90703D1016841F00101E6
:102D800001602068016821F400610160212084F85D
:102D90003D00102084F83E0000262664C4F82480FC
:102DA0006785608D20852D48E0622B464A46514656
:102DB000204600F031FC90B920684169806900909C
:102DC00036E02A464946204600F04CFD50B1206CC2
:102DD000042804D12068016841F4007101600120D9
:102DE000BDE8F88F606A216800780861606A401C5D
:102DF0006062618D491E6185218D491E89B22185E0
:102E000022685369DB435B070BD451B10078106132
:102E1000606A401C6062608D401E6085208D401E8F
:102E200020852A464946204600F044FC0028CED1A1
:102E3000208D0028C5D154F83D0B016841F4007184
:102E40000160202004F81E09E67766770020C7E7B6
:102E5000FFE70220C4E70000020010000000FFFFAF
:102E600030B585B0002100910191029103911E4D72
:102E700003681E4C122103221D48AB4216D1A369E0
:102E800043F00803A361A369039203F008030493CA
:102E9000C023CDE900316946FFF7AEFBE06940F49D
:102EA0000010E061E06900F4001019E0114DAB4240
:102EB00017D1A36943F00803A361A369039203F048
:102EC000080304934FF44063CDE900316946FFF7EE
:102ED00093FBE06940F48000E061E06900F4800069
:102EE000049005B030BD00000054004000100240C6
:102EF000000C0140005800400248816802781144EB
:102F00008160704714000020074810B5016841F047
:102F100010010160032000F05FF80F2000F006F8B8
:102F200000F024F8002010BD0020024070B50D4DC7
:102F300004464FF47A712878B1FBF0F00A49096829
:102F4000B1FBF0F000F0C6FA48B9102C07D200220D
:102F50002146501E00F020F800206C6070BD01205A
:102F600070BD00001400002020000020094808B5B2
:102F7000816941F001018161816901F001010091E4
:102F8000C16941F08051C161C06900F0805000907A
:102F900008BD000000100240F0B40E4B1B680C4648
:102FA000C3F30223C3F10705042D00D90425191D1D
:102FB000072901D2002300E0DB1E012606FA05F1F5
:102FC000491E214099409E40761E16403143F0BC78
:102FD00000F0B2BC0CED00E0064900F00702086802
:102FE0004FF6FF03184040EA0220034A10430860EE
:102FF000704700000CED00E00000FA052DE9F047F5
:103000000F46050061D0434E306800F00700B8421B
:1030100009D2306820F0070038433060306800F093
:103020000700B84251D128683B4C810712D54007B0
:1030300003D5606840F4E06060602878000703D53D
:10304000606840F4605060606068A96820F0F0003B
:10305000084360602878C00728D06868012810D02D
:103060002168022810D0890700292EDA616821F032
:10307000030101436160FFF7B5FB804641F28839E7
:103080000DE021688903EFE78901EDE7FFF7AAFB6F
:10309000A0EB0801494502D90320BDE8F08760682C
:1030A000696800F00C00B0EB810FEFD1306800F0E0
:1030B0000700B8420BD9306820F007003843306071
:1030C000306800F00700B84201D00120E5E7287819
:1030D000400705D56068E96820F4E0600843606057
:1030E0002878000706D56068296920F4605040EA16
:1030F000C100606000F028F86168084AC1F303115C
:10310000515CC8400649086006480068FFF70EFF9A
:103110000020C2E700200240001002405C45000889
:103120002000002018000020044805490068496874
:10313000044AC1F30221515CC840704720000020BE
:10314000001002406C45000812A185B00FC98DE83F
:103150000F0014A0144A006804905168134801F04D
:103160000C03042B10D0082B0ED1C1F38343C903E9
:103170001DF803000AD5516804AAC1F34041515C0F
:103180000A4A5043B0FBF1F005B070470849484384
:10319000FAE7000002030405060708090A0B0C0DF4
:1031A0000E0F1010010200000010024000127A0001
:1031B00000093D002DE9F84F040070D02078C04D83
:1031C000C00749D06868C0F38100012807D068684B
:1031D000C0F38100022809D16868C00306D52868B9
:1031E000800339D560680028E7D035E06068B0F525
:1031F000803F0BD010B1B0F5A02F11D0286820F47B
:1032000080302860286820F4802002E0286840F49C
:1032100080302860606890B1FFF7E4FA06460AE063
:10322000286840F480202860F0E700BFFFF7DAFA52
:10323000801B642873D828688003F7D50CE0FFF75B
:10324000D1FA064605E000BFFFF7CCFA801B6428E0
:10325000F0D828688003F7D420789A4E80074FF082
:1032600001094FF0000839D5686810F00C0F07D03D
:103270006868C0F38100022809D16868C00306D4D9
:103280002868800714D52069012808D110E020693A
:10329000B0B1C6F80090FFF7A5FA074605E00AE1CD
:1032A000FFF7A0FAC01B0228C4D828688007F7D50A
:1032B0002868616920F0F80040EAC10028600DE04C
:1032C000C6F80080FFF78EFA074604E0FFF78AFA97
:1032D000C01B022823D828688007F7D4207800076D
:1032E0002CD57948A169D9B1C0F80090FFF77AFAD6
:1032F000074604E0FFF776FAC01B02280FD8686A79
:103300008007F7D571484FF4FA510068B0FBF1F02F
:10331000009000BF0098411E0091FAD20EE080E0BC
:10332000C0F80080FFF75EFA074604E0FFF75AFA9C
:10333000C01B022875D8686A8007F7D42078400738
:1033400060D5E8690027C00008D4E86940F08050E3
:10335000E861E869012700F0805000905C4801684E
:10336000C90513D40168834641F480710160FFF7F9
:1033700039FA824606E000BFFFF734FAA0EB0A00F4
:1033800064284ED8DBF80000C005F5D5E0680128B8
:103390000AD008B1052813D0286A20F0010028625D
:1033A000286A20F0040002E0286A40F00100286248
:1033B000E06841F2883B98B1FFF714FA82460BE0CF
:1033C000286A40F004002862EEE700BFFFF70AFA1F
:1033D000A0EB0A0159455AD8286A8007F6D50CE0B7
:1033E000FFF700FA824605E0FFF7FCF9A0EB0A01BF
:1033F00059454CD8286A8007F6D41FB1E86920F0F7
:103400008050E861E06988B36968C1F381010229ED
:1034100044D00228C6F8608004D0FFF7E3F90446E0
:1034200038E034E0FFF7DEF9074604E0FFF7DAF9A9
:10343000C01B02282BD828688001F7D4206AB0F579
:10344000803F05D16868A16820F4003008436860B7
:10345000D4E908010843696821F4741108436860DD
:10346000C6F86090FFF7BEF9044606E025E000BF0D
:10347000FFF7B8F9001B022809D828688001F7D5A2
:103480001BE000BFFFF7AEF9001B022802D90320A2
:10349000BDE8F88F28688001F4D40EE00128F7D049
:1034A0006868226A00F48031914204D1616A00F4B4
:1034B0007010884201D00120EAE70020E8E7000010
:1034C00000100240000042428004424220000020DE
:1034D0000070004010B5401EB0F1807F01D3012084
:1034E00010BD4FF0E02460610F21601700F024FA56
:1034F0000020A06107202061002010BDFEE70168C8
:103500004A69D24352050FD46FF480624A610021A8
:1035100040F8301F202242738173026942F0040296
:103520000261017301207047002070472DE9F84FB8
:103530000446C06A1E4693460D4621680A6842F456
:1035400080620A60082807D0012805D010F5803F66
:1035500002D0206B112804D12068016841F48071E9
:1035600001604FF001195B46002249462046009653
:1035700000F0C6F84FF4007840B120680068C0053C
:1035800001D5C4F840800320BDE8F88F2069DFF83A
:1035900084A0B0F5804F0FD00620216800EAD5172F
:1035A00047F0F000086133465A460AF1060120460A
:1035B00000F0DAF858BB03E0E8B240F001001CE08C
:1035C0002168E8B2086133465A465146204600F069
:1035D000CBF8E0B92068416981690091016841F444
:1035E000807101605B46002249462046009600F04B
:1035F00087F80028C1D147F0F100216808613346FF
:103600005A465146204600F0AFF80028BCD00120B1
:10361000BAE7000002000100F8B50446C06A1E4681
:103620000D461746082807D0012805D010F5803F21
:1036300002D0206B122804D12068016841F4807107
:103640000160134600224FF001112046009600F061
:1036500057F840B120680068C00502D54FF40070EB
:1036600020640320F8BD2069B0F5804F0ED00620FD
:10367000216800EAD51040F0F000086133463A4670
:103680000B49204600F070F878B902E005F0FE0022
:1036900000E0E8B221680861054933463A46891FCF
:1036A000204600F061F80028DCD00120F8BD0000C1
:1036B0000800010070B516460D4604460DE0204690
:1036C000FFF71DFF08B1012070BD681C05D0FFF792
:1036D00089F8801BA84207D835B120684069C043EB
:1036E0004007ECD4002070BD002044F8300F2021AA
:1036F0006173A073216941F0200121612073E2E729
:103700002DE9F0471E4690460D460446C1F3074793
:10371000DDF8209008E0701C06D0FFF763F8A0EBFE
:103720000900B0420FD876B12068012F18D0806907
:1037300025EA00000004000C14D000214145EAD025
:103740000020BDE8F087002044F8300F202161738D
:10375000A073216941F02001216120730120F0E76D
:103760004069E5E70121E9E72DE9F0479A469146EE
:103770000E46044600254FF02008C1F3074725E018
:1037800020684069C043400514D42068016841F4B2
:103790000071016021686FF480604861256384F8DE
:1037A0003D8084F83E50206C40F00400206484F892
:1037B0003C501FE0B9F1FF3F08D0FFF713F8A0EB32
:1037C0000A0149450CD8B9F1000F09D02068012F32
:1037D00013D0806926EA00000004000C0BD0CFE76C
:1037E00044F8305F84F80D80A573206940F0200014
:1037F000206125730120BDE8F0874069EAE72DE9E3
:10380000F041002590460E460446202717E0406907
:10381000C043C0060CD454F8301B6FF01000486150
:1038200044F810596777A577206A2062257717E05A
:10383000FEF7D8FFA0EB0800B04208D83EB12068E0
:103840004169C9434906E2D40020BDE8F08144F84B
:10385000305F6773A573206940F0200020612573F5
:103860000120F2E770B516460D4604460DE02046ED
:10387000FFF745FE08B1012070BD681C05D0FEF7BA
:10388000B1FF801BA84207D835B120684069C0430A
:103890000006ECD4002070BD002044F8300F202139
:1038A0006173A073216941F0200121612073E2E777
:1038B000FEE7FEE770477047FFF71EBB10B590B0FC
:1038C00028216846FCF7BFFE14210AA8FCF7BBFEBE
:1038D00002200090012004901020002405900794FD
:1038E0006846FFF767FC08B172B6FEE70F20CDE926
:1038F0000A040C940D9400210AA80E94FFF77EFB95
:10390000002801D072B6FEE710B010BD7047FEE788
:10391000490050EAC12018BF04204A0D18BF40F0EA
:10392000010040F2FF72B2EB515F08BF40F00200AD
:10393000012808BF052070470907090E002804DB8D
:1039400000F1E02080F80014704700F00F0000F153
:10395000E02080F8141D704730380A2801D2012079
:1039600070470020704700002DE9F04180468AB082
:103970000E46002000F0B0F83A4F202E13D0062259
:103980006946304600F076F80024374D0E2E11D0EF
:10399000082E11D0282E0FD02E2E0DD0142E0DD083
:1039A0001A2E0DD011E008226946304600F062F868
:1039B000388906E0F88804E0388802E0788800E07A
:1039C000B88800F060FD04460D46202102A8FCF7EF
:1039D0003AFEBDF90000202E24D000F03DFD224625
:1039E0002B4600F0E1FBCDE90401BDF9020000F037
:1039F00033FD22462B4600F0D7FBCDE90601BDF989
:103A0000040000BF00F028FD22462B4600F0CCFB4E
:103A1000CDE90801202202A94046FCF7E2FD0AB0E8
:103A2000BDE8F08100F018FD22462B4600F0BCFBFB
:103A3000CDE90201BDF9020000F00EFD22462B4641
:103A400000F0B2FBCDE90401BDF9040000F004FD73
:103A500022462B4600F0A8FBCDE90601BDF9060081
:103A6000D0E70000000000200000F03F1A21FFF71F
:103A70007BBF000077B581B014460D466426012354
:103A800001AA502105480096FFF754F923462A461B
:103A9000502102480096FFF72BF87FBD3000002030
:103AA00010B520213F2000F059F8BDE810404FF438
:103AB0002F70FEF78FBD10B5044601463D2000F083
:103AC0004DF824B10720BDE81040FEF783BD132058
:103AD000F9E70C20FFF7EFBF0146072000F03EB8E2
:103AE00008B5FFF7DDFF00208DF8000001226946D0
:103AF000FFF7C0FF9DF80010A02902D008A0FCF736
:103B0000D3FB0020FFF7E8FF00213F2000F026F85C
:103B10000020FFF7D0FF0A20FEF75CFD08BD000083
:103B200043616E27742066696E6420424E4F3035C3
:103B3000352C2069643A203078253032782E205098
:103B40006C6561736520636865636B20796F75725E
:103B500020776972696E672E0D0A00001CB58DF81A
:103B600004000A208DF805100090022301AA5021BC
:103B70003148FFF7DFF801004ED0012918D00329A2
:103B800018D0022918D02DA0FCF78EFB2A48FEF78A
:103B90002FFE002840D0012812D0022812D004287D
:103BA00012D0082812D0102812D0202812D014E0E9
:103BB00028A002E030A000E039A0FCF775FBE5E7A3
:103BC00040A008E045A006E04AA004E04EA002E0C4
:103BD00052A000E056A0FCF767FB1748FEF70AFE6C
:103BE000A8B1202813D0242813D0212815D02228AA
:103BF00015D0282815D0292815D02A2815D06028B6
:103C000015D0A02815D0E02806D14FA002E054A07E
:103C100000E059A0FCF748FB1CBD5DA0FAE762A0DC
:103C2000F8E767A0F6E76CA0F4E773A0F2E77AA0E4
:103C3000F0E77FA0EEE7000030000020556E6B6ECD
:103C40006F776E2073746174757320646174612082
:103C50002564000048414C5F4932435F4D617374F5
:103C600065725F5472616E736D69742048414C5F78
:103C70004552524F520D0A0048414C5F4932435F52
:103C80004D61737465725F5472616E736D697420F7
:103C900048414C5F54494D454F55540D0A000000B2
:103CA00048414C5F4932435F4D61737465725F54A4
:103CB00072616E736D69742048414C5F425553596F
:103CC0000D0A000048414C5F4932435F4552524F54
:103CD000525F424552520D0A0000000048414C5FBD
:103CE0004932435F4552524F525F41524C4F0D0A89
:103CF0000000000048414C5F4932435F4552524F3B
:103D0000525F41460D0A000048414C5F4932435F13
:103D10004552524F525F4F56520D0A0048414C5F78
:103D20004932435F4552524F525F444D410D0A00A4
:103D300048414C5F4932435F4552524F525F5449AC
:103D40004D454F55540D0A0048414C5F4932435F81
:103D500053544154455F4552524F520D0A000000E2
:103D600048414C5F4932435F53544154455F52458B
:103D70005345540D0A00000048414C5F4932435FEF
:103D800053544154455F425553590D0A00000000F9
:103D900048414C5F4932435F53544154455F42555B
:103DA00053595F54580D0A0048414C5F4932435FF4
:103DB00053544154455F425553595F52580D0A00C0
:103DC00048414C5F4932435F53544154455F4C492D
:103DD0005354454E0D0A000048414C5F4932435F41
:103DE00053544154455F425553595F54585F4C49B1
:103DF0005354454E0D0A000048414C5F4932435F21
:103E000053544154455F425553595F52585F4C4992
:103E10005354454E0D0A000048414C5F4932435F00
:103E200053544154455F41424F52540D0A00000023
:103E300048414C5F4932435F53544154455F5449B4
:103E40004D454F55540D0A008A68002A01DCFDF7E4
:103E5000CDBB521E8A604A68C0B2531C4B601070C2
:103E6000704710B5012000F099F8BDE8104003201C
:103E7000FEF7B0BB70B505463220FEF7ABFB2A4C0F
:103E80002846052265604FF4FA752B464E21FEF751
:103E900079FD002845D02B4605227E216068FEF77B
:103EA00071FD08B1002070BD7E2020702D20FEF72E
:103EB00091FB302000F072F80520FEF78BFB3020DC
:103EC00000F06CF80120FEF785FB302000F066F86A
:103ED0000820FEF77FFB202000F060F80820FEF7A6
:103EE00079FB282000F05AF80120FEF773FB082028
:103EF00000F054F80120FEF76DFB012000F04EF8B1
:103F00000320FEF767FB062000F048F80120FEF7CB
:103F100061FB0C2000F042F80320FEF75BFB012060
:103F200070BD4E20C1E700000C0000200FB410B59A
:103F300088B00BAA01A80A99FCF7A4F900241FE095
:103F400001A80423015D080101F0F00141F00D0218
:103F50008DF8182041F009018DF8191040F00D017D
:103F60008DF81A1040F009008DF81B00C820009051
:103F7000094806AA01784068FEF7DCFE641CE4B23A
:103F800001A8FCF70FFBA04201D9102CD8D308B030
:103F900010BC5DF814FB00000C0000201CB50101F2
:103FA00000F0F00040F00C028DF8042040F0080012
:103FB0008DF8050041F00C008DF8060041F0080076
:103FC0008DF80700C82000900348042301AA017857
:103FD0004068FEF7AFFE1CBD0C00002001F00F0191
:103FE00020B141F0C00000BFFFF7D8BF41F0800012
:103FF000FAE7000088B0FEF787FFFFF75FFC0024B8
:1040000042480094019402940394816941F00801AC
:10401000816180693E4E00F008004FF480550490A5
:10402000224629463046FEF7D7FB01200095CDE910
:1040300001040220039069463046FEF7DDFA364857
:104040003449AD0001603549C0E90114C0E90345B8
:1040500044618461C4610462FEF7D0FB08B172B6AA
:10406000FEE72D482E49543001602E49C0E9011465
:10407000C0E9034544618461C4610462FEF7BEFB8C
:1040800008B172B6FEE724485430FFF7F3FE20B1C2
:10409000FFF7E7FE24A0FFF749FFFFF721FDFFF739
:1040A00018FD1D4CA8346846FFF7E0FC1A48202292
:1040B0006946A830FCF795FAFFF7D3FE00210846C1
:1040C000FFF78CFFD4E9022319A0FFF72FFF0A2185
:1040D0000020FFF783FFD4E9042317A0FFF726FF92
:1040E00000210120FFF77AFFD4E9062314A0FFF78F
:1040F0001DFF0A210120FFF771FFD4E9002312A060
:10410000FFF714FF0A20FEF765FACCE70010024023
:10411000000C01400054004030000020801A0600CE
:1041200000580040A08601006D616E74617000004F
:10413000583A20252E326600593A20252E32660044
:104140005A3A20252E326600573A20252E32660034
:1041500010B500290AD00878002807D0054878440F
:10416000FDF792FD002801D0002010BD02487844E0
:1041700010BD0000420500003A05000010B50029FE
:104180000AD00878002807D005487844FDF77CFD60
:10419000002801D0002010BD0248784410BD000066
:1041A000320500002A0500002DE9C04130B4DFF8D7
:1041B000A0C23CEA111418BF3CEA131400F0EC80D2
:1041C00081EA03051CEA111444EAD57418BF1CEAFD
:1041D000131500F0C780A4EB05044FF0004545EA35
:1041E000C12145EAC32341EA505143EA525304F145
:1041F0007F74994204F500344FEAC0204FEAC2228E
:1042000008BF904200F09C804FEA13650FF2401601
:10421000765D4FEA134506FB05F7C7F1807706FB8D
:1042200007F74FEAD737A7FB03687642C8F580380F
:10423000A7FB06CE38BFA8F1010807FB08E64FF040
:10424000000EA6FB028CE6FB03CEDCF1000CCEF1E7
:10425000004E38BFAEF1010EA6FB0C584FF0000720
:104260004FF00005E6FB0E87A1FB08C6A0FB07CEBA
:1042700016EB0E0645F10005E1FB076515F1E04E72
:104280007EBFA4F580345FEA46066D4116F18007D3
:1042900045F100054FEA17274FEA066647EA05672A
:1042A000A6F1DE46B6F1805F4FEA15251FD93846E4
:1042B00024F0010C05EBC471BCF1FE6F01EB0C1195
:1042C00002D8F0BCBDE8008124425CBF01F5801E2D
:1042D0009EEAC47F02D4F0BCBDE80081244238D4F9
:1042E000F0BCA1F1C041BDE8004100F02DB94FEA9A
:1042F000D22242EA43524FEAD323A7FB02864FEA77
:10430000D02040EA415007FB03661EEA0E0F4FEA39
:10431000D12105FB026658BFA6EB0056B6EB00564E
:104320004FEA520E4EEAC37E18EB0E0E56EB530EBA
:10433000BDD518EB02085E417F1C55F10005B6E7BC
:104340004FF480154FF000074FF000064FF00008C3
:10435000ADE7F0BC4FF0000001F1C04101F00041B9
:10436000BDE8008111EA0C1F0CEA131500D00CE027
:1043700013EA0C1F00F025804FF00000F0BC81EA2A
:10438000030101F00041BDE80081F0BCBDE800413F
:1043900081EA030100F0D8B8F0BCBDE8004170B577
:1043A00000F084F8097EFC3E00F007B881EA0301C2
:1043B0004FF0000001F00041704781EA030100F076
:1043C000C3B8F0BCBDE800414FF000002149704780
:1043D000FFFDFBF9F7F5F4F2F0EEEDEBE9E8E6E4CA
:1043E000E3E1E0DEDDDBDAD8D7D5D4D3D1D0CFCD51
:1043F000CCCBCAC8C7C6C5C4C2C1C0BFBEBDBCBB8A
:10440000BAB9B8B7B6B5B4B3B2B1B0AFAEADACAB84
:10441000AAA9A8A8A7A6A5A4A3A3A2A1A09F9F9E5E
:104420009D9C9C9B9A999998979796959594939310
:10443000929191908F8F8E8E8D8C8C8B8B8A8989A7
:10444000888887878685858484838382828181802A
:104450000000FF070000F87F10F0004248BF404214
:10446000B0FA80F310FA03F10AD0C3F11D0303F58B
:1044700080634FEA415002EB035202EBD1217047B7
:104480004FF000007047B0FA80F310FA03F10AD041
:10449000C3F11D0303F580634FEA41504FEA035215
:1044A00002EBD12170474FF0000070470EF1020E71
:1044B0002EF0030E5EF8046B364205D4012A43EB5E
:1044C000030515F5001F12D8012841EB010C1CF55E
:1044D000001F0CD80ED14FEAD17C15F5001F0CEB54
:1044E0004C0C0CF1020C08BF4CEBD37C04E04FF0F9
:1044F000080C01E04FEAD37C0CEB4C0526FA05F6DC
:1045000006F00706B6F1040C06D20EEB860CBDE8E9
:1045100070404CF0010C6047DFE80CF0090B020220
:104520004FF000414FF00000A1F5002170BD194689
:104530001046012851EB010418BFD4F5001484BFC4
:10454000002001F0004170BD0808A0F500114FEAFD
:1045500031017047FCF76CBBFCF7A0BC0000000009
:104560000000000001020304060708090000000023
:1045700001020304303132333435363738394142A1
:1045800043444546403058003031323334353637B5
:104590003839616263646566403078000400000861
:1045A00000000000000000020001000010000000F8
:1045B000000000000000000030313233343536375F
:1045C0003839616263646566787000303132333443
:1045D00035363738394142434445465850003A74DD
:1045E00074003A7474003A747400000002400000D1
:1045F000000000A00000000005400000000000C80E
:10460000000000000C4000000000409C0000000082
:10461000194000000020BCBE000000003440000033
:10462000BFC91B8E00000004B5400000504BCFD026
:104630006607E2CF010000006C4100003E8251AAF3
:10464000DFEEA73401000000D9420000DCB5A0E293
:104650003A301F97FFFFFFFFB4450000FD25A0C8BB
:10466000E9A3C14FFFFFFFFFFF3F000000000080F4
:1046700000000000FF3F000000000080000000007C
:10468000CC4700080000002030000000280100088E
:10469000FC47000830000020280800004401000802
:1046A0001C00000043000000F8FFFFFF0C000000AA
:1046B0000E0000000F0000002E000000100100009E
:1046C00043000000F8FFFFFF0040404040404040F2
:1046D00040404141414141404040404040404040D5
:1046E0004040404040404040400502020202020279
:1046F00002020202020202020220202020202020C8
:1047000020202002020202020202909090909090DB
:104710001010101010101010101010101010101099
:10472000101010100202020202028888888888880D
:1047300008080808080808080808080808080808F9
:104740000808080802020202400000000000000001
:104750000000000000000000000000000000000059
:104760000000000000000000000000000000000049
:104770000000000000000000000000000000000039
:104780000000000000000000000000000000000029
:104790000000000000000000000000000000000019
:1047A0000000000000000000000000000000000009
:1047B00000000000000000000000000000000000F9
:1047C0000000000000000000000000006400100075
:1047D0001000100000400000000000000000000079
:1047E0000100000010000000000000000024F400A0
:0C47F000000000000000000000000000BD
:04000005080000ED02
:00000001FF
